Product: MDK-ARM Professional 5.10
Component: ARM Compiler 5.04 update 1 (build 49)
Tool: armlink [5040049]

==============================================================================

Section Cross References

    main.o(i.main) refers to _printf_percent.o(.ARM.Collect$$_printf_percent$$00000000) for _printf_percent
    main.o(i.main) refers to _printf_s.o(.ARM.Collect$$_printf_percent$$00000014) for _printf_s
    main.o(i.main) refers to _printf_str.o(.text) for _printf_str
    main.o(i.main) refers to sysctl.o(i.SysCtlClockSet) for SysCtlClockSet
    main.o(i.main) refers to termio.o(i.TERMIO_Init) for TERMIO_Init
    main.o(i.main) refers to noretval__2printf.o(.text) for __2printf
    main.o(i.main) refers to puts.o(.text) for puts
    main.o(i.main) refers to es_framework.o(i.ES_Initialize) for ES_Initialize
    main.o(i.main) refers to es_framework.o(i.ES_Run) for ES_Run
    eventcheckers.o(i.Check4Keystroke) refers to termio.o(i.kbhit) for kbhit
    eventcheckers.o(i.Check4Keystroke) refers to getc.o(.text) for getc
    eventcheckers.o(i.Check4Keystroke) refers to testharnessservice0.o(i.PostTestHarnessService0) for PostTestHarnessService0
    eventcheckers.o(i.Check4Keystroke) refers to es_postlist.o(i.ES_PostList00) for ES_PostList00
    eventcheckers.o(i.Check4Keystroke) refers to retarget.o(.data) for __stdin
    testharnessservice0.o(i.InitTestHarnessService0) refers to es_queue.o(i.ES_InitQueue) for ES_InitQueue
    testharnessservice0.o(i.InitTestHarnessService0) refers to es_shorttimer.o(i.ES_ShortTimerInit) for ES_ShortTimerInit
    testharnessservice0.o(i.InitTestHarnessService0) refers to sysctl.o(i.SysCtlPeripheralEnable) for SysCtlPeripheralEnable
    testharnessservice0.o(i.InitTestHarnessService0) refers to gpio.o(i.GPIOPinTypeGPIOOutput) for GPIOPinTypeGPIOOutput
==============================================================================

Removing Unused input sections from the image.

    Removing templatefsm.o(i.InitTemplateFSM), (32 bytes).
    Removing templatefsm.o(i.PostTemplateFSM), (16 bytes).
    Removing templatefsm.o(i.QueryTemplateFSM), (12 bytes).
    Removing templatefsm.o(i.RunTemplateFSM), (44 bytes).
    Removing templatefsm.o(.data), (2 bytes).
    Removing es_framework.o(i.ES_PostAll), (72 bytes).
    Removing es_port.o(i.ConsoleInit), (80 bytes).
    Removing es_port.o(i._HW_GetTickCount), (12 bytes).
    Removing es_queue.o(i.ES_IsQueueEmpty), (12 bytes).
    Removing es_timers.o(i.ES_Timer_GetTime), (4 bytes).
    Removing es_timers.o(i.ES_Timer_SetTimer), (40 bytes).
    Removing es_timers.o(i.ES_Timer_StartTimer), (48 bytes).
    Removing es_timers.o(i.ES_Timer_StopTimer), (36 bytes).
    Removing retarget.o(i._ttywrch), (6 bytes).
    Removing uartstdio.o(i.UARTgets), (132 bytes).
    Removing uartstdio.o(i.UARTprintf), (18 bytes).
    Removing uartstdio.o(i.UARTvprintf), (436 bytes).
    Removing uartstdio.o(i.UARTwrite), (60 bytes).
==============================================================================

Image Symbol Table

    Local Symbols

    Symbol Name                              Value     Ov Type        Size  Object(Section)

    RESET                                    0x00000000   Section      648  startup_rvmdk.o(RESET)
    ../clib/angel/boardlib.s                 0x00000000   Number         0  boardinit2.o ABSOLUTE
    ../clib/angel/boardlib.s                 0x00000000   Number         0  boardinit3.o ABSOLUTE
    ../clib/angel/boardlib.s                 0x00000000   Number         0  boardshut.o ABSOLUTE
    ../clib/angel/boardlib.s                 0x00000000   Number         0  boardinit1.o ABSOLUTE
    ../clib/angel/handlers.s                 0x00000000   Number         0  __scatter_zi.o ABSOLUTE
    ../clib/angel/handlers.s                 0x00000000   Number         0  __scatter_copy.o ABSOLUTE
    ../clib/angel/kernel.s                   0x00000000   Number         0  rtentry2.o ABSOLUTE
    ../clib/angel/kernel.s                   0x00000000   Number         0  rtentry4.o ABSOLUTE
    ../clib/angel/kernel.s                   0x00000000   Number         0  rtentry.o ABSOLUTE
    ../clib/angel/kernel.s                   0x00000000   Number         0  rtexit2.o ABSOLUTE
    ../clib/angel/kernel.s                   0x00000000   Number         0  rtexit.o ABSOLUTE
    ../clib/angel/rt.s                       0x00000000   Number         0  rt_raise.o ABSOLUTE
    ../clib/angel/scatter.s                  0x00000000   Number         0  __scatter.o ABSOLUTE
    ../clib/angel/startup.s                  0x00000000   Number         0  __main.o ABSOLUTE
    ../clib/angel/sys.s                      0x00000000   Number         0  indicate_semi.o ABSOLUTE
    ../clib/angel/sys.s                      0x00000000   Number         0  use_no_semi.o ABSOLUTE
    ../clib/angel/sys.s                      0x00000000   Number         0  libspace.o ABSOLUTE
    ../clib/angel/sys.s                      0x00000000   Number         0  sys_stackheap_outer.o ABSOLUTE
    ../clib/angel/sysapp.c                   0x00000000   Number         0  sys_command.o ABSOLUTE
    ../clib/armsys.c                         0x00000000   Number         0  argv_veneer.o ABSOLUTE
    ../clib/armsys.c                         0x00000000   Number         0  no_argv.o ABSOLUTE
    ../clib/armsys.c                         0x00000000   Number         0  _get_argv_nomalloc.o ABSOLUTE
    ../clib/armsys.c                         0x00000000   Number         0  argv_veneer.o ABSOLUTE
    ../clib/heapalloc.c                      0x00000000   Number         0  hrguard.o ABSOLUTE
    ../clib/heapaux.c                        0x00000000   Number         0  heapauxi.o ABSOLUTE
    ../clib/libinit.s                        0x00000000   Number         0  libshutdown2.o ABSOLUTE
    ../clib/libinit.s                        0x00000000   Number         0  libshutdown.o ABSOLUTE
    ../clib/libinit.s                        0x00000000   Number         0  libinit.o ABSOLUTE
    ../clib/libinit.s                        0x00000000   Number         0  libinit2.o ABSOLUTE
    ../clib/printf.c                         0x00000000   Number         0  _printf_str.o ABSOLUTE
    ../clib/printf.c                         0x00000000   Number         0  _printf_dec.o ABSOLUTE
    ../clib/printf.c                         0x00000000   Number         0  __printf_flags.o ABSOLUTE
    ../clib/printf.c                         0x00000000   Number         0  __printf_ss.o ABSOLUTE
    ../clib/printf.c                         0x00000000   Number         0  __printf_flags_ss.o ABSOLUTE
    ../clib/printf.c                         0x00000000   Number         0  __printf_flags_wp.o ABSOLUTE
    ../clib/printf.c                         0x00000000   Number         0  __printf_ss_wp.o ABSOLUTE
    ../clib/printf.c                         0x00000000   Number         0  __printf.o ABSOLUTE
    ../clib/printf.c                         0x00000000   Number         0  __printf_flags_ss_wp.o ABSOLUTE
    ../clib/printf.c                         0x00000000   Number         0  __printf_wp.o ABSOLUTE
    ../clib/printf.c                         0x00000000   Number         0  __printf_nopercent.o ABSOLUTE
    ../clib/printf.c                         0x00000000   Number         0  _printf_char_common.o ABSOLUTE
    ../clib/printf.c                         0x00000000   Number         0  _printf_intcommon.o ABSOLUTE
    ../clib/printf.c                         0x00000000   Number         0  _printf_char.o ABSOLUTE
    ../clib/printf.c                         0x00000000   Number         0  _printf_char_file.o ABSOLUTE
    ../clib/printf.c                         0x00000000   Number         0  __2printf.o ABSOLUTE
    ../clib/printf.c                         0x00000000   Number         0  noretval__2printf.o ABSOLUTE
    ../clib/printf_percent.s                 0x00000000   Number         0  _printf_s.o ABSOLUTE
    ../clib/printf_percent.s                 0x00000000   Number         0  _printf_percent.o ABSOLUTE
    ../clib/printf_percent.s                 0x00000000   Number         0  _printf_d.o ABSOLUTE
    ../clib/printf_percent.s                 0x00000000   Number         0  _printf_percent_end.o ABSOLUTE
    ../clib/printf_percent.s                 0x00000000   Number         0  _printf_c.o ABSOLUTE
    ../clib/signal.c                         0x00000000   Number         0  defsig_other.o ABSOLUTE
    ../clib/signal.c                         0x00000000   Number         0  defsig_pvfn_inner.o ABSOLUTE
    ../clib/signal.c                         0x00000000   Number         0  defsig_exit.o ABSOLUTE
    ../clib/signal.c                         0x00000000   Number         0  defsig_rtmem_outer.o ABSOLUTE
    ../clib/signal.c                         0x00000000   Number         0  defsig_rtmem_inner.o ABSOLUTE
    ../clib/signal.c                         0x00000000   Number         0  __raise.o ABSOLUTE
    ../clib/signal.c                         0x00000000   Number         0  defsig_general.o ABSOLUTE
    ../clib/signal.c                         0x00000000   Number         0  defsig_rtmem_formal.o ABSOLUTE
    ../clib/signal.c                         0x00000000   Number         0  defsig_abrt_inner.o ABSOLUTE
    ../clib/signal.c                         0x00000000   Number         0  defsig_fpe_inner.o ABSOLUTE
    ../clib/signal.c                         0x00000000   Number         0  defsig_rtred_inner.o ABSOLUTE
    ../clib/signal.c                         0x00000000   Number         0  defsig_stak_inner.o ABSOLUTE
    ../clib/signal.c                         0x00000000   Number         0  defsig_cppl_inner.o ABSOLUTE
    ../clib/signal.c                         0x00000000   Number         0  defsig_segv_inner.o ABSOLUTE
    ../clib/signal.s                         0x00000000   Number         0  defsig.o ABSOLUTE
    ../clib/stdio.c                          0x00000000   Number         0  getc.o ABSOLUTE
    ../clib/stdio.c                          0x00000000   Number         0  puts.o ABSOLUTE
    ../clib/stdlib.c                         0x00000000   Number         0  exit.o ABSOLUTE
    ../fplib/fpinit.s                        0x00000000   Number         0  fpinit.o ABSOLUTE
    Source\ES_CheckEvents.c                  0x00000000   Number         0  es_checkevents.o ABSOLUTE
    Source\ES_DeferRecall.c                  0x00000000   Number         0  es_deferrecall.o ABSOLUTE
    Source\ES_Framework.c                    0x00000000   Number         0  es_framework.o ABSOLUTE
    Source\ES_LookupTables.c                 0x00000000   Number         0  es_lookuptables.o ABSOLUTE
    Source\ES_Port.c                         0x00000000   Number         0  es_port.o ABSOLUTE
    Source\ES_PostList.c                     0x00000000   Number         0  es_postlist.o ABSOLUTE
    Source\ES_Queue.c                        0x00000000   Number         0  es_queue.o ABSOLUTE
    Source\ES_ShortTimer.c                   0x00000000   Number         0  es_shorttimer.o ABSOLUTE
    Source\ES_Timers.c                       0x00000000   Number         0  es_timers.o ABSOLUTE
    Source\EventCheckers.c                   0x00000000   Number         0  eventcheckers.o ABSOLUTE
    Source\TemplateFSM.c                     0x00000000   Number         0  templatefsm.o ABSOLUTE
    Source\TestHarnessService0.c             0x00000000   Number         0  testharnessservice0.o ABSOLUTE
    Source\main.c                            0x00000000   Number         0  main.o ABSOLUTE
    Source\retarget.c                        0x00000000   Number         0  retarget.o ABSOLUTE
    Source\termio.c                          0x00000000   Number         0  termio.o ABSOLUTE
    Source\uartstdio.c                       0x00000000   Number         0  uartstdio.o ABSOLUTE
    StartUp\startup_rvmdk.S                  0x00000000   Number         0  startup_rvmdk.o ABSOLUTE
    cpu.c                                    0x00000000   Number         0  cpu.o ABSOLUTE
    cpu.c                                    0x00000000   Number         0  cpu.o ABSOLUTE
    dc.s                                     0x00000000   Number         0  dc.o ABSOLUTE
    gpio.c                                   0x00000000   Number         0  gpio.o ABSOLUTE
    interrupt.c                              0x00000000   Number         0  interrupt.o ABSOLUTE
    sysctl.c                                 0x00000000   Number         0  sysctl.o ABSOLUTE
    sysctl.c                                 0x00000000   Number         0  sysctl.o ABSOLUTE
    systick.c                                0x00000000   Number         0  systick.o ABSOLUTE
    timer.c                                  0x00000000   Number         0  timer.o ABSOLUTE
    uart.c                                   0x00000000   Number         0  uart.o ABSOLUTE
    $v0                                      0x0000026c   Number         0  startup_rvmdk.o(RESET)
    NmiSR                                    0x00000281   Thumb Code     0  startup_rvmdk.o(RESET)
    FaultISR                                 0x00000283   Thumb Code     0  startup_rvmdk.o(RESET)
    IntDefaultHandler                        0x00000285   Thumb Code     0  startup_rvmdk.o(RESET)
    !!!main                                  0x00000288   Section        8  __main.o(!!!main)
    !!!scatter                               0x00000290   Section       52  __scatter.o(!!!scatter)
    !!handler_copy                           0x000002c4   Section       26  __scatter_copy.o(!!handler_copy)
    !!handler_zi                             0x000002e0   Section       28  __scatter_zi.o(!!handler_zi)
    .ARM.Collect$$_printf_percent$$00000000  0x000002fc   Section        0  _printf_percent.o(.ARM.Collect$$_printf_percent$$00000000)
    .ARM.Collect$$_printf_percent$$00000009  0x000002fc   Section        6  _printf_d.o(.ARM.Collect$$_printf_percent$$00000009)
    .ARM.Collect$$_printf_percent$$00000013  0x00000302   Section        6  _printf_c.o(.ARM.Collect$$_printf_percent$$00000013)
    .ARM.Collect$$_printf_percent$$00000014  0x00000308   Section        6  _printf_s.o(.ARM.Collect$$_printf_percent$$00000014)
    .ARM.Collect$$_printf_percent$$00000017  0x0000030e   Section        4  _printf_percent_end.o(.ARM.Collect$$_printf_percent$$00000017)
    .ARM.Collect$$libinit$$00000000          0x00000312   Section        2  libinit.o(.ARM.Collect$$libinit$$00000000)
    .ARM.Collect$$libinit$$00000001          0x00000314   Section        4  libinit2.o(.ARM.Collect$$libinit$$00000001)
    .ARM.Collect$$libinit$$00000008          0x00000318   Section        0  libinit2.o(.ARM.Collect$$libinit$$00000008)
    .ARM.Collect$$libinit$$0000000A          0x00000318   Section        0  libinit2.o(.ARM.Collect$$libinit$$0000000A)
    .ARM.Collect$$libinit$$0000000C          0x00000318   Section        0  libinit2.o(.ARM.Collect$$libinit$$0000000C)
    .ARM.Collect$$libinit$$0000000F          0x00000318   Section        0  libinit2.o(.ARM.Collect$$libinit$$0000000F)
    .ARM.Collect$$libinit$$00000011          0x00000318   Section        0  libinit2.o(.ARM.Collect$$libinit$$00000011)
    .ARM.Collect$$libinit$$00000013          0x00000318   Section        0  libinit2.o(.ARM.Collect$$libinit$$00000013)
    .ARM.Collect$$libinit$$00000015          0x00000318   Section        0  libinit2.o(.ARM.Collect$$libinit$$00000015)
    .ARM.Collect$$libinit$$00000017          0x00000318   Section        0  libinit2.o(.ARM.Collect$$libinit$$00000017)
    .ARM.Collect$$libinit$$00000019          0x00000318   Section        0  libinit2.o(.ARM.Collect$$libinit$$00000019)
    .ARM.Collect$$libinit$$0000001B          0x00000318   Section        0  libinit2.o(.ARM.Collect$$libinit$$0000001B)
    .ARM.Collect$$libinit$$0000001D          0x00000318   Section        0  libinit2.o(.ARM.Collect$$libinit$$0000001D)
    .ARM.Collect$$libinit$$0000001F          0x00000318   Section        0  libinit2.o(.ARM.Collect$$libinit$$0000001F)
    .ARM.Collect$$libinit$$00000021          0x00000318   Section        0  libinit2.o(.ARM.Collect$$libinit$$00000021)
    .ARM.Collect$$libinit$$00000023          0x00000318   Section        0  libinit2.o(.ARM.Collect$$libinit$$00000023)
    .ARM.Collect$$libinit$$0000002A          0x00000318   Section        0  libinit2.o(.ARM.Collect$$libinit$$0000002A)
    .ARM.Collect$$libinit$$0000002C          0x00000318   Section        0  libinit2.o(.ARM.Collect$$libinit$$0000002C)
    .ARM.Collect$$libinit$$0000002E          0x00000318   Section        0  libinit2.o(.ARM.Collect$$libinit$$0000002E)
    .ARM.Collect$$libinit$$00000030          0x00000318   Section        0  libinit2.o(.ARM.Collect$$libinit$$00000030)
    .ARM.Collect$$libinit$$00000031          0x00000318   Section        2  libinit2.o(.ARM.Collect$$libinit$$00000031)
    .ARM.Collect$$libshutdown$$00000000      0x0000031a   Section        2  libshutdown.o(.ARM.Collect$$libshutdown$$00000000)
    .ARM.Collect$$libshutdown$$00000003      0x0000031c   Section        0  libshutdown2.o(.ARM.Collect$$libshutdown$$00000003)
    .ARM.Collect$$libshutdown$$00000006      0x0000031c   Section        0  libshutdown2.o(.ARM.Collect$$libshutdown$$00000006)
    .ARM.Collect$$libshutdown$$00000009      0x0000031c   Section        0  libshutdown2.o(.ARM.Collect$$libshutdown$$00000009)
    .ARM.Collect$$libshutdown$$0000000B      0x0000031c   Section        0  libshutdown2.o(.ARM.Collect$$libshutdown$$0000000B)
    .ARM.Collect$$libshutdown$$0000000E      0x0000031c   Section        0  libshutdown2.o(.ARM.Collect$$libshutdown$$0000000E)
    .ARM.Collect$$libshutdown$$0000000F      0x0000031c   Section        2  libshutdown2.o(.ARM.Collect$$libshutdown$$0000000F)
    .ARM.Collect$$rtentry$$00000000          0x0000031e   Section        0  rtentry.o(.ARM.Collect$$rtentry$$00000000)
    .ARM.Collect$$rtentry$$00000002          0x0000031e   Section        0  rtentry2.o(.ARM.Collect$$rtentry$$00000002)
    .ARM.Collect$$rtentry$$00000004          0x0000031e   Section        6  rtentry4.o(.ARM.Collect$$rtentry$$00000004)
    .ARM.Collect$$rtentry$$00000009          0x00000324   Section        0  rtentry2.o(.ARM.Collect$$rtentry$$00000009)
    .ARM.Collect$$rtentry$$0000000A          0x00000324   Section        4  rtentry2.o(.ARM.Collect$$rtentry$$0000000A)
    .ARM.Collect$$rtentry$$0000000C          0x00000328   Section        0  rtentry2.o(.ARM.Collect$$rtentry$$0000000C)
    .ARM.Collect$$rtentry$$0000000D          0x00000328   Section        8  rtentry2.o(.ARM.Collect$$rtentry$$0000000D)
    .ARM.Collect$$rtexit$$00000000           0x00000330   Section        2  rtexit.o(.ARM.Collect$$rtexit$$00000000)
    .ARM.Collect$$rtexit$$00000002           0x00000332   Section        0  rtexit2.o(.ARM.Collect$$rtexit$$00000002)
    .ARM.Collect$$rtexit$$00000003           0x00000332   Section        4  rtexit2.o(.ARM.Collect$$rtexit$$00000003)
    .ARM.Collect$$rtexit$$00000004           0x00000336   Section        6  rtexit2.o(.ARM.Collect$$rtexit$$00000004)
    .emb_text                                0x0000033c   Section        6  sysctl.o(.emb_text)
    $v0                                      0x0000033c   Number         0  sysctl.o(.emb_text)
    .emb_text                                0x00000344   Section       38  cpu.o(.emb_text)
    $v0                                      0x00000344   Number         0  cpu.o(.emb_text)
    .text                                    0x0000036c   Section       24  startup_rvmdk.o(.text)
    $v0                                      0x0000036c   Number         0  startup_rvmdk.o(.text)
    .text                                    0x00000384   Section        2  use_no_semi.o(.text)
    .text                                    0x00000388   Section        0  noretval__2printf.o(.text)
    .text                                    0x000003a0   Section        0  __printf.o(.text)
    .text                                    0x00000408   Section        0  _printf_str.o(.text)
    .text                                    0x0000045c   Section        0  _printf_dec.o(.text)
    .text                                    0x000004d0   Section        0  getc.o(.text)
    .text                                    0x000004d4   Section        0  puts.o(.text)
    .text                                    0x00000500   Section        0  heapauxi.o(.text)
    .text                                    0x00000506   Section        0  _printf_intcommon.o(.text)
    .text                                    0x000005b8   Section        0  _printf_char.o(.text)
    .text                                    0x000005e4   Section        0  _printf_char_file.o(.text)
    .text                                    0x00000608   Section        0  _printf_char_common.o(.text)
    _printf_input_char                       0x00000609   Thumb Code    10  _printf_char_common.o(.text)
    .text                                    0x00000638   Section       74  sys_stackheap_outer.o(.text)
    .text                                    0x00000682   Section        0  exit.o(.text)
    .text                                    0x00000690   Section        8  libspace.o(.text)
    i.CPUgetPRIMASK_cpsid                    0x00000698   Section        0  es_port.o(i.CPUgetPRIMASK_cpsid)
    i.CPUsetPRIMASK                          0x000006a0   Section        0  es_port.o(i.CPUsetPRIMASK)
    i.Check4Keystroke                        0x000006a8   Section        0  eventcheckers.o(i.Check4Keystroke)
    i.ES_CheckUserEvents                     0x000006e0   Section        0  es_checkevents.o(i.ES_CheckUserEvents)
    i.ES_DeQueue                             0x00000708   Section        0  es_queue.o(i.ES_DeQueue)
    i.ES_EnQueueFIFO                         0x0000075c   Section        0  es_queue.o(i.ES_EnQueueFIFO)
    i.ES_EnQueueLIFO                         0x000007a4   Section        0  es_queue.o(i.ES_EnQueueLIFO)
    i.ES_GetMSBitSet                         0x000007ec   Section        0  es_lookuptables.o(i.ES_GetMSBitSet)
    i.ES_InitQueue                           0x00000820   Section        0  es_queue.o(i.ES_InitQueue)
    i.ES_Initialize                          0x00000830   Section        0  es_framework.o(i.ES_Initialize)
    i.ES_PostList00                          0x0000087c   Section        0  es_postlist.o(i.ES_PostList00)
    i.ES_PostToService                       0x000008ac   Section        0  es_framework.o(i.ES_PostToService)
    i.ES_PostToServiceLIFO                   0x000008dc   Section        0  es_framework.o(i.ES_PostToServiceLIFO)
    i.ES_RecallEvents                        0x0000090c   Section        0  es_deferrecall.o(i.ES_RecallEvents)
    i.ES_Run                                 0x00000938   Section        0  es_framework.o(i.ES_Run)
    i.ES_ShortTimerInit                      0x00000998   Section        0  es_shorttimer.o(i.ES_ShortTimerInit)
    i.ES_ShortTimerStart                     0x000009d0   Section        0  es_shorttimer.o(i.ES_ShortTimerStart)
    i.ES_Timer_Init                          0x00000a30   Section        0  es_timers.o(i.ES_Timer_Init)
    i.ES_Timer_InitTimer                     0x00000a34   Section        0  es_timers.o(i.ES_Timer_InitTimer)
    i.ES_Timer_Tick_Resp                     0x00000a70   Section        0  es_timers.o(i.ES_Timer_Tick_Resp)
    i.GPIODirModeSet                         0x00000adc   Section        0  gpio.o(i.GPIODirModeSet)
    i.GPIOPadConfigSet                       0x00000b04   Section        0  gpio.o(i.GPIOPadConfigSet)
    i.GPIOPinConfigure                       0x00000c40   Section        0  gpio.o(i.GPIOPinConfigure)
    i.GPIOPinTypeGPIOOutput                  0x00000c88   Section        0  gpio.o(i.GPIOPinTypeGPIOOutput)
    i.GPIOPinTypeUART                        0x00000ca4   Section        0  gpio.o(i.GPIOPinTypeUART)
    i.GPIOPinWrite                           0x00000cc0   Section        0  gpio.o(i.GPIOPinWrite)
    i.InitTestHarnessService0                0x00000cc8   Section        0  testharnessservice0.o(i.InitTestHarnessService0)
    i.IntEnable                              0x00000d4c   Section        0  interrupt.o(i.IntEnable)
    i.IntMasterEnable                        0x00000db0   Section        0  interrupt.o(i.IntMasterEnable)
    i.PostTestHarnessService0                0x00000dc0   Section        0  testharnessservice0.o(i.PostTestHarnessService0)
    i.RunTestHarnessService0                 0x00000dd0   Section        0  testharnessservice0.o(i.RunTestHarnessService0)
    i.ShortTimerAHandler                     0x00000fe0   Section        0  es_shorttimer.o(i.ShortTimerAHandler)
    i.ShortTimerBHandler                     0x00001014   Section        0  es_shorttimer.o(i.ShortTimerBHandler)
    i.SysCtlClockSet                         0x0000104c   Section        0  sysctl.o(i.SysCtlClockSet)
    i.SysCtlPeripheralEnable                 0x0000116c   Section        0  sysctl.o(i.SysCtlPeripheralEnable)
    i.SysTickEnable                          0x00001194   Section        0  systick.o(i.SysTickEnable)
    i.SysTickIntEnable                       0x000011a2   Section        0  systick.o(i.SysTickIntEnable)
    i.SysTickIntHandler                      0x000011b0   Section        0  es_port.o(i.SysTickIntHandler)
    i.SysTickPeriodSet                       0x000011c4   Section        0  systick.o(i.SysTickPeriodSet)
    i.TERMIO_GetChar                         0x000011ce   Section        0  termio.o(i.TERMIO_GetChar)
    i.TERMIO_Init                            0x000011d4   Section        0  termio.o(i.TERMIO_Init)
    i.TERMIO_PutChar                         0x00001224   Section        0  termio.o(i.TERMIO_PutChar)
    i.TimerConfigure                         0x00001230   Section        0  timer.o(i.TimerConfigure)
    i.TimerEnable                            0x00001290   Section        0  timer.o(i.TimerEnable)
    i.TimerIntClear                          0x0000129e   Section        0  timer.o(i.TimerIntClear)
    i.TimerIntEnable                         0x000012a2   Section        0  timer.o(i.TimerIntEnable)
    i.TimerLoadSet                           0x000012aa   Section        0  timer.o(i.TimerLoadSet)
    i.TimerPrescaleSet                       0x000012bc   Section        0  timer.o(i.TimerPrescaleSet)
    i.UARTCharPut                            0x000012ce   Section        0  uart.o(i.UARTCharPut)
    i.UARTClockSourceSet                     0x000012da   Section        0  uart.o(i.UARTClockSourceSet)
    i.UARTStdioConfig                        0x000012e0   Section        0  uartstdio.o(i.UARTStdioConfig)
    i.UARTgetc                               0x0000133c   Section        0  uartstdio.o(i.UARTgetc)
    i._HW_Process_Pending_Ints               0x00001354   Section        0  es_port.o(i._HW_Process_Pending_Ints)
    i._HW_Timer_Init                         0x00001374   Section        0  es_port.o(i._HW_Timer_Init)
    i._sys_exit                              0x0000138a   Section        0  retarget.o(i._sys_exit)
    i.ferror                                 0x0000138c   Section        0  retarget.o(i.ferror)
    i.fgetc                                  0x00001392   Section        0  retarget.o(i.fgetc)
    i.fputc                                  0x00001396   Section        0  retarget.o(i.fputc)
    i.kbhit                                  0x000013a4   Section        0  termio.o(i.kbhit)
    i.main                                   0x000013b8   Section        0  main.o(i.main)
    x$fpl$fpinit                             0x00001588   Section       10  fpinit.o(x$fpl$fpinit)
    $v0                                      0x00001588   Number         0  fpinit.o(x$fpl$fpinit)
    .constdata                               0x00001594   Section        4  es_checkevents.o(.constdata)
    ES_EventList                             0x00001594   Data           4  es_checkevents.o(.constdata)
    .constdata                               0x00001598   Section       16  es_framework.o(.constdata)
    ServDescList                             0x00001598   Data           8  es_framework.o(.constdata)
    EventQueues                              0x000015a0   Data           8  es_framework.o(.constdata)
    .constdata                               0x000015a8   Section       32  es_lookuptables.o(.constdata)
    .constdata                               0x000015c8   Section       15  es_lookuptables.o(.constdata)
    .constdata                               0x000015d8   Section        8  es_postlist.o(.constdata)
    DistList00                               0x000015d8   Data           8  es_postlist.o(.constdata)
    .constdata                               0x000015e0   Section       64  es_timers.o(.constdata)
    Timer2PostFunc                           0x000015e0   Data          64  es_timers.o(.constdata)
    .constdata                               0x00001620   Section       28  uartstdio.o(.constdata)
    g_pcHex                                  0x00001620   Data           4  uartstdio.o(.constdata)
    g_ui32UARTBase                           0x00001624   Data          12  uartstdio.o(.constdata)
    g_ui32UARTPeriph                         0x00001630   Data          12  uartstdio.o(.constdata)
    .constdata                               0x0000163c   Section      528  gpio.o(.constdata)
    g_ppui32GPIOIntMapBlizzard               0x0000163c   Data         192  gpio.o(.constdata)
    g_ppui32GPIOIntMapSnowflake              0x000016fc   Data         192  gpio.o(.constdata)
    g_pui32GPIOBaseAddrs                     0x000017bc   Data         144  gpio.o(.constdata)
    .constdata                               0x0000184c   Section      268  interrupt.o(.constdata)
    g_pui32Priority                          0x0000184c   Data          32  interrupt.o(.constdata)
    g_pui32Regs                              0x0000186c   Data         156  interrupt.o(.constdata)
    g_pui32EnRegs                            0x00001908   Data          20  interrupt.o(.constdata)
    g_pui32Dii16Regs                         0x0000191c   Data          20  interrupt.o(.constdata)
    g_pui32PendRegs                          0x00001930   Data          20  interrupt.o(.constdata)
    g_pui32UnpendRegs                        0x00001944   Data          20  interrupt.o(.constdata)
    .conststring                             0x00001958   Section       17  uartstdio.o(.conststring)
    .data                                    0x20000000   Section        3  testharnessservice0.o(.data)
    DeferredChar                             0x20000000   Data           1  testharnessservice0.o(.data)
    LEDvalue                                 0x20000001   Data           1  testharnessservice0.o(.data)
    MyPriority                               0x20000002   Data           1  testharnessservice0.o(.data)
    .data                                    0x20000003   Section        2  es_shorttimer.o(.data)
    Timer_A_Priority                         0x20000003   Data           1  es_shorttimer.o(.data)
    Timer_B_Priority                         0x20000004   Data           1  es_shorttimer.o(.data)
    .data                                    0x20000006   Section        6  es_framework.o(.data)
    ThisEvent                                0x20000008   Data           4  es_framework.o(.data)
    .data                                    0x2000000c   Section        4  es_port.o(.data)
    TickCount                                0x2000000c   Data           1  es_port.o(.data)
    SysTickCounter                           0x2000000e   Data           2  es_port.o(.data)
    .data                                    0x20000010   Section        4  es_queue.o(.data)
    .data                                    0x20000014   Section       10  es_timers.o(.data)
    NextTimer2Process                        0x20000014   Data           1  es_timers.o(.data)
    NeedsProcessing                          0x20000016   Data           2  es_timers.o(.data)
    TMR_ActiveFlags                          0x20000018   Data           2  es_timers.o(.data)
    NewEvent                                 0x2000001a   Data           4  es_timers.o(.data)
    .data                                    0x20000020   Section        4  retarget.o(.data)
    .data                                    0x20000024   Section        4  retarget.o(.data)
    .data                                    0x20000028   Section        8  uartstdio.o(.data)
    bLastWasCR                               0x20000028   Data           1  uartstdio.o(.data)
    g_ui32Base                               0x2000002c   Data           4  uartstdio.o(.data)
    .bss                                     0x20000030   Section       16  testharnessservice0.o(.bss)
    DeferralQueue                            0x20000030   Data          16  testharnessservice0.o(.bss)
    .bss                                     0x20000040   Section       24  es_framework.o(.bss)
    Queue0                                   0x20000040   Data          24  es_framework.o(.bss)
    .bss                                     0x20000058   Section       32  es_timers.o(.bss)
    TMR_TimerArray                           0x20000058   Data          32  es_timers.o(.bss)
    .bss                                     0x20000078   Section       96  libspace.o(.bss)
    HEAP                                     0x200000d8   Section        0  startup_rvmdk.o(HEAP)
    STACK                                    0x200000d8   Section     2048  startup_rvmdk.o(STACK)
    HeapMem                                  0x200000d8   Data           0  startup_rvmdk.o(HEAP)
    StackMem                                 0x200000d8   Data           0  startup_rvmdk.o(STACK)

    Global Symbols

    Symbol Name                              Value     Ov Type        Size  Object(Section)

    BuildAttributes$$THM_ISAv4$E$P$D$K$B$S$7EM$VFPi3$EXTD16$VFPS$VFMA$PE$A:L22UL41UL21$X:L11$S22US41US21$IEEE1$IW$USESV6$~STKCKD$USESV7$~SHL$OTIME$ROPI$EBA8$UX$STANDARDLIB$REQ8$PRES8$EABIv2 0x00000000   Number         0  anon$$obj.o ABSOLUTE
    __ARM_use_no_argv                        0x00000000   Number         0  main.o ABSOLUTE
    __Vectors                                0x00000000   Data           0  startup_rvmdk.o(RESET)
    __ARM_exceptions_init                     - Undefined Weak Reference
    __alloca_initialize                       - Undefined Weak Reference
    __cpp_initialize__aeabi_                  - Undefined Weak Reference
    __cxa_finalize                            - Undefined Weak Reference
    __rt_locale                               - Undefined Weak Reference
    __sigvec_lookup                           - Undefined Weak Reference
    _atexit_init                              - Undefined Weak Reference
    _call_atexit_fns                          - Undefined Weak Reference
    _clock_init                               - Undefined Weak Reference
    _fp_trap_init                             - Undefined Weak Reference
    _fp_trap_shutdown                         - Undefined Weak Reference
    _get_lc_collate                           - Undefined Weak Reference
    _get_lc_ctype                             - Undefined Weak Reference
    _get_lc_monetary                          - Undefined Weak Reference
    _get_lc_numeric                           - Undefined Weak Reference
    _get_lc_time                              - Undefined Weak Reference
    _getenv_init                              - Undefined Weak Reference
    _handle_redirection                       - Undefined Weak Reference
    _init_alloc                               - Undefined Weak Reference
    _init_user_alloc                          - Undefined Weak Reference
    _initio                                   - Undefined Weak Reference
    _printf_mbtowc                            - Undefined Weak Reference
    _printf_post_padding                      - Undefined Weak Reference
    _printf_pre_padding                       - Undefined Weak Reference
    _printf_truncate_signed                   - Undefined Weak Reference
    _printf_truncate_unsigned                 - Undefined Weak Reference
    _rand_init                                - Undefined Weak Reference
    _signal_finish                            - Undefined Weak Reference
    _signal_init                              - Undefined Weak Reference
    _terminate_alloc                          - Undefined Weak Reference
    _terminate_user_alloc                     - Undefined Weak Reference
    _terminateio                              - Undefined Weak Reference
    Reset_Handler                            0x0000026d   Thumb Code     0  startup_rvmdk.o(RESET)
    __main                                   0x00000289   Thumb Code     8  __main.o(!!!main)
    __scatterload                            0x00000291   Thumb Code     0  __scatter.o(!!!scatter)
    __scatterload_rt2                        0x00000291   Thumb Code    44  __scatter.o(!!!scatter)
    __scatterload_rt2_thumb_only             0x00000291   Thumb Code     0  __scatter.o(!!!scatter)
    __scatterload_null                       0x0000029f   Thumb Code     0  __scatter.o(!!!scatter)
    __scatterload_copy                       0x000002c5   Thumb Code    26  __scatter_copy.o(!!handler_copy)
    __scatterload_zeroinit                   0x000002e1   Thumb Code    28  __scatter_zi.o(!!handler_zi)
    _printf_d                                0x000002fd   Thumb Code     0  _printf_d.o(.ARM.Collect$$_printf_percent$$00000009)
    _printf_percent                          0x000002fd   Thumb Code     0  _printf_percent.o(.ARM.Collect$$_printf_percent$$00000000)
    _printf_c                                0x00000303   Thumb Code     0  _printf_c.o(.ARM.Collect$$_printf_percent$$00000013)
    _printf_s                                0x00000309   Thumb Code     0  _printf_s.o(.ARM.Collect$$_printf_percent$$00000014)
    _printf_percent_end                      0x0000030f   Thumb Code     0  _printf_percent_end.o(.ARM.Collect$$_printf_percent$$00000017)
    __rt_lib_init                            0x00000313   Thumb Code     0  libinit.o(.ARM.Collect$$libinit$$00000000)
    __rt_lib_init_fp_1                       0x00000315   Thumb Code     0  libinit2.o(.ARM.Collect$$libinit$$00000001)
    __rt_lib_init_alloca_1                   0x00000319   Thumb Code     0  libinit2.o(.ARM.Collect$$libinit$$0000002C)
    __rt_lib_init_argv_1                     0x00000319   Thumb Code     0  libinit2.o(.ARM.Collect$$libinit$$0000002A)
    __rt_lib_init_atexit_1                   0x00000319   Thumb Code     0  libinit2.o(.ARM.Collect$$libinit$$00000019)
    __rt_lib_init_clock_1                    0x00000319   Thumb Code     0  libinit2.o(.ARM.Collect$$libinit$$0000001F)
    __rt_lib_init_cpp_1                      0x00000319   Thumb Code     0  libinit2.o(.ARM.Collect$$libinit$$00000030)
    __rt_lib_init_exceptions_1               0x00000319   Thumb Code     0  libinit2.o(.ARM.Collect$$libinit$$0000002E)
    __rt_lib_init_fp_trap_1                  0x00000319   Thumb Code     0  libinit2.o(.ARM.Collect$$libinit$$0000001D)
    __rt_lib_init_getenv_1                   0x00000319   Thumb Code     0  libinit2.o(.ARM.Collect$$libinit$$00000021)
    __rt_lib_init_heap_1                     0x00000319   Thumb Code     0  libinit2.o(.ARM.Collect$$libinit$$00000008)
    __rt_lib_init_lc_collate_1               0x00000319   Thumb Code     0  libinit2.o(.ARM.Collect$$libinit$$0000000F)
    __rt_lib_init_lc_ctype_1                 0x00000319   Thumb Code     0  libinit2.o(.ARM.Collect$$libinit$$00000011)
    __rt_lib_init_lc_monetary_1              0x00000319   Thumb Code     0  libinit2.o(.ARM.Collect$$libinit$$00000013)
    __rt_lib_init_lc_numeric_1               0x00000319   Thumb Code     0  libinit2.o(.ARM.Collect$$libinit$$00000015)
    __rt_lib_init_lc_time_1                  0x00000319   Thumb Code     0  libinit2.o(.ARM.Collect$$libinit$$00000017)
    __rt_lib_init_rand_1                     0x00000319   Thumb Code     0  libinit2.o(.ARM.Collect$$libinit$$0000000C)
    __rt_lib_init_return                     0x00000319   Thumb Code     0  libinit2.o(.ARM.Collect$$libinit$$00000031)
    __rt_lib_init_signal_1                   0x00000319   Thumb Code     0  libinit2.o(.ARM.Collect$$libinit$$0000001B)
    __rt_lib_init_stdio_1                    0x00000319   Thumb Code     0  libinit2.o(.ARM.Collect$$libinit$$00000023)
    __rt_lib_init_user_alloc_1               0x00000319   Thumb Code     0  libinit2.o(.ARM.Collect$$libinit$$0000000A)
    __rt_lib_shutdown                        0x0000031b   Thumb Code     0  libshutdown.o(.ARM.Collect$$libshutdown$$00000000)
    __rt_lib_shutdown_fp_trap_1              0x0000031d   Thumb Code     0  libshutdown2.o(.ARM.Collect$$libshutdown$$00000006)
    __rt_lib_shutdown_heap_1                 0x0000031d   Thumb Code     0  libshutdown2.o(.ARM.Collect$$libshutdown$$0000000E)
    __rt_lib_shutdown_return                 0x0000031d   Thumb Code     0  libshutdown2.o(.ARM.Collect$$libshutdown$$0000000F)
    __rt_lib_shutdown_signal_1               0x0000031d   Thumb Code     0  libshutdown2.o(.ARM.Collect$$libshutdown$$00000009)
    __rt_lib_shutdown_stdio_1                0x0000031d   Thumb Code     0  libshutdown2.o(.ARM.Collect$$libshutdown$$00000003)
    __rt_lib_shutdown_user_alloc_1           0x0000031d   Thumb Code     0  libshutdown2.o(.ARM.Collect$$libshutdown$$0000000B)
    __rt_entry                               0x0000031f   Thumb Code     0  rtentry.o(.ARM.Collect$$rtentry$$00000000)
    __rt_entry_presh_1                       0x0000031f   Thumb Code     0  rtentry2.o(.ARM.Collect$$rtentry$$00000002)
    __rt_entry_sh                            0x0000031f   Thumb Code     0  rtentry4.o(.ARM.Collect$$rtentry$$00000004)
    __rt_entry_li                            0x00000325   Thumb Code     0  rtentry2.o(.ARM.Collect$$rtentry$$0000000A)
    __rt_entry_postsh_1                      0x00000325   Thumb Code     0  rtentry2.o(.ARM.Collect$$rtentry$$00000009)
    __rt_entry_main                          0x00000329   Thumb Code     0  rtentry2.o(.ARM.Collect$$rtentry$$0000000D)
    __rt_entry_postli_1                      0x00000329   Thumb Code     0  rtentry2.o(.ARM.Collect$$rtentry$$0000000C)
    __rt_exit                                0x00000331   Thumb Code     0  rtexit.o(.ARM.Collect$$rtexit$$00000000)
    __rt_exit_ls                             0x00000333   Thumb Code     0  rtexit2.o(.ARM.Collect$$rtexit$$00000003)
    __rt_exit_prels_1                        0x00000333   Thumb Code     0  rtexit2.o(.ARM.Collect$$rtexit$$00000002)
    __rt_exit_exit                           0x00000337   Thumb Code     0  rtexit2.o(.ARM.Collect$$rtexit$$00000004)
    SysCtlDelay                              0x0000033d   Thumb Code     6  sysctl.o(.emb_text)
    CPUcpsid                                 0x00000345   Thumb Code     8  cpu.o(.emb_text)
    CPUprimask                               0x0000034d   Thumb Code     6  cpu.o(.emb_text)
    CPUcpsie                                 0x00000353   Thumb Code     8  cpu.o(.emb_text)
    CPUwfi                                   0x0000035b   Thumb Code     4  cpu.o(.emb_text)
    CPUbasepriSet                            0x0000035f   Thumb Code     6  cpu.o(.emb_text)
    CPUbasepriGet                            0x00000365   Thumb Code     6  cpu.o(.emb_text)
    __user_initial_stackheap                 0x0000036d   Thumb Code     0  startup_rvmdk.o(.text)
    __I$use$semihosting                      0x00000385   Thumb Code     0  use_no_semi.o(.text)
    __use_no_semihosting_swi                 0x00000385   Thumb Code     2  use_no_semi.o(.text)
    __2printf                                0x00000389   Thumb Code    20  noretval__2printf.o(.text)
    __printf                                 0x000003a1   Thumb Code   104  __printf.o(.text)
    _printf_str                              0x00000409   Thumb Code    82  _printf_str.o(.text)
    _printf_int_dec                          0x0000045d   Thumb Code   100  _printf_dec.o(.text)
    getc                                     0x000004d1   Thumb Code     4  getc.o(.text)
    puts                                     0x000004d5   Thumb Code    40  puts.o(.text)
    __use_two_region_memory                  0x00000501   Thumb Code     2  heapauxi.o(.text)
    __rt_heap_escrow$2region                 0x00000503   Thumb Code     2  heapauxi.o(.text)
    __rt_heap_expand$2region                 0x00000505   Thumb Code     2  heapauxi.o(.text)
    _printf_int_common                       0x00000507   Thumb Code   178  _printf_intcommon.o(.text)
    _printf_cs_common                        0x000005b9   Thumb Code    20  _printf_char.o(.text)
    _printf_char                             0x000005cd   Thumb Code    16  _printf_char.o(.text)
    _printf_string                           0x000005dd   Thumb Code     8  _printf_char.o(.text)
    _printf_char_file                        0x000005e5   Thumb Code    32  _printf_char_file.o(.text)
    _printf_char_common                      0x00000613   Thumb Code    32  _printf_char_common.o(.text)
    __user_setup_stackheap                   0x00000639   Thumb Code    74  sys_stackheap_outer.o(.text)
    exit                                     0x00000683   Thumb Code    12  exit.o(.text)
    __user_libspace                          0x00000691   Thumb Code     8  libspace.o(.text)
    __user_perproc_libspace                  0x00000691   Thumb Code     0  libspace.o(.text)
    __user_perthread_libspace                0x00000691   Thumb Code     0  libspace.o(.text)
    CPUgetPRIMASK_cpsid                      0x00000699   Thumb Code     8  es_port.o(i.CPUgetPRIMASK_cpsid)
    CPUsetPRIMASK                            0x000006a1   Thumb Code     6  es_port.o(i.CPUsetPRIMASK)
    Check4Keystroke                          0x000006a9   Thumb Code    50  eventcheckers.o(i.Check4Keystroke)
    ES_CheckUserEvents                       0x000006e1   Thumb Code    34  es_checkevents.o(i.ES_CheckUserEvents)
    ES_DeQueue                               0x00000709   Thumb Code    80  es_queue.o(i.ES_DeQueue)
    ES_EnQueueFIFO                           0x0000075d   Thumb Code    66  es_queue.o(i.ES_EnQueueFIFO)
    ES_EnQueueLIFO                           0x000007a5   Thumb Code    66  es_queue.o(i.ES_EnQueueLIFO)
    ES_GetMSBitSet                           0x000007ed   Thumb Code    48  es_lookuptables.o(i.ES_GetMSBitSet)
    ES_InitQueue                             0x00000821   Thumb Code    16  es_queue.o(i.ES_InitQueue)
    ES_Initialize                            0x00000831   Thumb Code    72  es_framework.o(i.ES_Initialize)
    ES_PostList00                            0x0000087d   Thumb Code    44  es_postlist.o(i.ES_PostList00)
    ES_PostToService                         0x000008ad   Thumb Code    34  es_framework.o(i.ES_PostToService)
    ES_PostToServiceLIFO                     0x000008dd   Thumb Code    34  es_framework.o(i.ES_PostToServiceLIFO)
    ES_RecallEvents                          0x0000090d   Thumb Code    44  es_deferrecall.o(i.ES_RecallEvents)
    ES_Run                                   0x00000939   Thumb Code    84  es_framework.o(i.ES_Run)
    ES_ShortTimerInit                        0x00000999   Thumb Code    40  es_shorttimer.o(i.ES_ShortTimerInit)
    ES_ShortTimerStart                       0x000009d1   Thumb Code    90  es_shorttimer.o(i.ES_ShortTimerStart)
    ES_Timer_Init                            0x00000a31   Thumb Code     4  es_timers.o(i.ES_Timer_Init)
    ES_Timer_InitTimer                       0x00000a35   Thumb Code    44  es_timers.o(i.ES_Timer_InitTimer)
    ES_Timer_Tick_Resp                       0x00000a71   Thumb Code    90  es_timers.o(i.ES_Timer_Tick_Resp)
    GPIODirModeSet                           0x00000add   Thumb Code    40  gpio.o(i.GPIODirModeSet)
    GPIOPadConfigSet                         0x00000b05   Thumb Code   314  gpio.o(i.GPIOPadConfigSet)
    GPIOPinConfigure                         0x00000c41   Thumb Code    64  gpio.o(i.GPIOPinConfigure)
    GPIOPinTypeGPIOOutput                    0x00000c89   Thumb Code    28  gpio.o(i.GPIOPinTypeGPIOOutput)
    GPIOPinTypeUART                          0x00000ca5   Thumb Code    28  gpio.o(i.GPIOPinTypeUART)
    GPIOPinWrite                             0x00000cc1   Thumb Code     6  gpio.o(i.GPIOPinWrite)
    InitTestHarnessService0                  0x00000cc9   Thumb Code   104  testharnessservice0.o(i.InitTestHarnessService0)
    IntEnable                                0x00000d4d   Thumb Code    92  interrupt.o(i.IntEnable)
    IntMasterEnable                          0x00000db1   Thumb Code    14  interrupt.o(i.IntMasterEnable)
    PostTestHarnessService0                  0x00000dc1   Thumb Code    10  testharnessservice0.o(i.PostTestHarnessService0)
    RunTestHarnessService0                   0x00000dd1   Thumb Code   254  testharnessservice0.o(i.RunTestHarnessService0)
    ShortTimerAHandler                       0x00000fe1   Thumb Code    42  es_shorttimer.o(i.ShortTimerAHandler)
    ShortTimerBHandler                       0x00001015   Thumb Code    46  es_shorttimer.o(i.ShortTimerBHandler)
    SysCtlClockSet                           0x0000104d   Thumb Code   270  sysctl.o(i.SysCtlClockSet)
    SysCtlPeripheralEnable                   0x0000116d   Thumb Code    36  sysctl.o(i.SysCtlPeripheralEnable)
    SysTickEnable                            0x00001195   Thumb Code    14  systick.o(i.SysTickEnable)
    SysTickIntEnable                         0x000011a3   Thumb Code    14  systick.o(i.SysTickIntEnable)
    SysTickIntHandler                        0x000011b1   Thumb Code    16  es_port.o(i.SysTickIntHandler)
    SysTickPeriodSet                         0x000011c5   Thumb Code    10  systick.o(i.SysTickPeriodSet)
    TERMIO_GetChar                           0x000011cf   Thumb Code     4  termio.o(i.TERMIO_GetChar)
    TERMIO_Init                              0x000011d5   Thumb Code    62  termio.o(i.TERMIO_Init)
    TERMIO_PutChar                           0x00001225   Thumb Code     8  termio.o(i.TERMIO_PutChar)
    TimerConfigure                           0x00001231   Thumb Code    88  timer.o(i.TimerConfigure)
    TimerEnable                              0x00001291   Thumb Code    14  timer.o(i.TimerEnable)
    TimerIntClear                            0x0000129f   Thumb Code     4  timer.o(i.TimerIntClear)
    TimerIntEnable                           0x000012a3   Thumb Code     8  timer.o(i.TimerIntEnable)
    TimerLoadSet                             0x000012ab   Thumb Code    18  timer.o(i.TimerLoadSet)
    TimerPrescaleSet                         0x000012bd   Thumb Code    18  timer.o(i.TimerPrescaleSet)
    UARTCharPut                              0x000012cf   Thumb Code    12  uart.o(i.UARTCharPut)
    UARTClockSourceSet                       0x000012db   Thumb Code     6  uart.o(i.UARTClockSourceSet)
    UARTStdioConfig                          0x000012e1   Thumb Code    82  uartstdio.o(i.UARTStdioConfig)
    UARTgetc                                 0x0000133d   Thumb Code    20  uartstdio.o(i.UARTgetc)
    _HW_Process_Pending_Ints                 0x00001355   Thumb Code    26  es_port.o(i._HW_Process_Pending_Ints)
    _HW_Timer_Init                           0x00001375   Thumb Code    22  es_port.o(i._HW_Timer_Init)
    _sys_exit                                0x0000138b   Thumb Code     2  retarget.o(i._sys_exit)
    ferror                                   0x0000138d   Thumb Code     6  retarget.o(i.ferror)
    fgetc                                    0x00001393   Thumb Code     4  retarget.o(i.fgetc)
    fputc                                    0x00001397   Thumb Code    14  retarget.o(i.fputc)
    kbhit                                    0x000013a5   Thumb Code    16  termio.o(i.kbhit)
    main                                     0x000013b9   Thumb Code   108  main.o(i.main)
    _fp_init                                 0x00001589   Thumb Code    10  fpinit.o(x$fpl$fpinit)
    __fplib_config_fpu_vfp                   0x00001591   Thumb Code     0  fpinit.o(x$fpl$fpinit)
    __fplib_config_pureend_doubles           0x00001591   Thumb Code     0  fpinit.o(x$fpl$fpinit)
    BitNum2SetMask                           0x000015a8   Data          32  es_lookuptables.o(.constdata)
    Nybble2MSBitNum                          0x000015c8   Data          15  es_lookuptables.o(.constdata)
    Region$$Table$$Base                      0x0000196c   Number         0  anon$$obj.o(Region$$Table)
    Region$$Table$$Limit                     0x0000198c   Number         0  anon$$obj.o(Region$$Table)
    Ready                                    0x20000006   Data           2  es_framework.o(.data)
    _PRIMASK_temp                            0x20000010   Data           4  es_queue.o(.data)
    __stdout                                 0x20000020   Data           4  retarget.o(.data)
    __stdin                                  0x20000024   Data           4  retarget.o(.data)
    __libspace_start                         0x20000078   Data          96  libspace.o(.bss)
    __temporary_stack_top$libspace           0x200000d8   Data           0  libspace.o(.bss)



==============================================================================

Memory Map of the image

  Image Entry point : 0x0000026d

  Load Region LR_IROM1 (Base: 0x00000000, Size: 0x000019bc, Max: 0x00040000, ABSOLUTE)

    Execution Region ER_IROM1 (Base: 0x00000000, Size: 0x0000198c, Max: 0x00040000, ABSOLUTE)

    Base Addr    Size         Type   Attr      Idx    E Section Name        Object

    0x00000000   0x00000288   Code   RO          232  * RESET               startup_rvmdk.o
    0x00000288   0x00000008   Code   RO         2068  * !!!main             c_w.l(__main.o)
    0x00000290   0x00000034   Code   RO         2227    !!!scatter          c_w.l(__scatter.o)
    0x000002c4   0x0000001a   Code   RO         2229    !!handler_copy      c_w.l(__scatter_copy.o)
    0x000002de   0x00000002   PAD
    0x000002e0   0x0000001c   Code   RO         2231    !!handler_zi        c_w.l(__scatter_zi.o)
    0x000002fc   0x00000000   Code   RO         2061    .ARM.Collect$$_printf_percent$$00000000  c_w.l(_printf_percent.o)
    0x000002fc   0x00000006   Code   RO         2060    .ARM.Collect$$_printf_percent$$00000009  c_w.l(_printf_d.o)
    0x00000302   0x00000006   Code   RO         2058    .ARM.Collect$$_printf_percent$$00000013  c_w.l(_printf_c.o)
    0x00000308   0x00000006   Code   RO         2059    .ARM.Collect$$_printf_percent$$00000014  c_w.l(_printf_s.o)
    0x0000030e   0x00000004   Code   RO         2077    .ARM.Collect$$_printf_percent$$00000017  c_w.l(_printf_percent_end.o)
    0x00000312   0x00000002   Code   RO         2106    .ARM.Collect$$libinit$$00000000  c_w.l(libinit.o)
    0x00000314   0x00000004   Code   RO         2112    .ARM.Collect$$libinit$$00000001  c_w.l(libinit2.o)
    0x00000318   0x00000000   Code   RO         2116    .ARM.Collect$$libinit$$00000008  c_w.l(libinit2.o)
    0x00000318   0x00000000   Code   RO         2118    .ARM.Collect$$libinit$$0000000A  c_w.l(libinit2.o)
    0x00000318   0x00000000   Code   RO         2120    .ARM.Collect$$libinit$$0000000C  c_w.l(libinit2.o)
    0x00000318   0x00000000   Code   RO         2123    .ARM.Collect$$libinit$$0000000F  c_w.l(libinit2.o)
    0x00000318   0x00000000   Code   RO         2125    .ARM.Collect$$libinit$$00000011  c_w.l(libinit2.o)
    0x00000318   0x00000000   Code   RO         2127    .ARM.Collect$$libinit$$00000013  c_w.l(libinit2.o)
    0x00000318   0x00000000   Code   RO         2129    .ARM.Collect$$libinit$$00000015  c_w.l(libinit2.o)
    0x00000318   0x00000000   Code   RO         2131    .ARM.Collect$$libinit$$00000017  c_w.l(libinit2.o)
    0x00000318   0x00000000   Code   RO         2133    .ARM.Collect$$libinit$$00000019  c_w.l(libinit2.o)
    0x00000318   0x00000000   Code   RO         2135    .ARM.Collect$$libinit$$0000001B  c_w.l(libinit2.o)
    0x00000318   0x00000000   Code   RO         2137    .ARM.Collect$$libinit$$0000001D  c_w.l(libinit2.o)
    0x00000318   0x00000000   Code   RO         2139    .ARM.Collect$$libinit$$0000001F  c_w.l(libinit2.o)
    0x00000318   0x00000000   Code   RO         2141    .ARM.Collect$$libinit$$00000021  c_w.l(libinit2.o)
    0x00000318   0x00000000   Code   RO         2143    .ARM.Collect$$libinit$$00000023  c_w.l(libinit2.o)
    0x00000318   0x00000000   Code   RO         2147    .ARM.Collect$$libinit$$0000002A  c_w.l(libinit2.o)
    0x00000318   0x00000000   Code   RO         2149    .ARM.Collect$$libinit$$0000002C  c_w.l(libinit2.o)
    0x00000318   0x00000000   Code   RO         2151    .ARM.Collect$$libinit$$0000002E  c_w.l(libinit2.o)
    0x00000318   0x00000000   Code   RO         2153    .ARM.Collect$$libinit$$00000030  c_w.l(libinit2.o)
    0x00000318   0x00000002   Code   RO         2154    .ARM.Collect$$libinit$$00000031  c_w.l(libinit2.o)
    0x0000031a   0x00000002   Code   RO         2172    .ARM.Collect$$libshutdown$$00000000  c_w.l(libshutdown.o)
    0x0000031c   0x00000000   Code   RO         2183    .ARM.Collect$$libshutdown$$00000003  c_w.l(libshutdown2.o)
    0x0000031c   0x00000000   Code   RO         2186    .ARM.Collect$$libshutdown$$00000006  c_w.l(libshutdown2.o)
    0x0000031c   0x00000000   Code   RO         2189    .ARM.Collect$$libshutdown$$00000009  c_w.l(libshutdown2.o)
    0x0000031c   0x00000000   Code   RO         2191    .ARM.Collect$$libshutdown$$0000000B  c_w.l(libshutdown2.o)
    0x0000031c   0x00000000   Code   RO         2194    .ARM.Collect$$libshutdown$$0000000E  c_w.l(libshutdown2.o)
    0x0000031c   0x00000002   Code   RO         2195    .ARM.Collect$$libshutdown$$0000000F  c_w.l(libshutdown2.o)
    0x0000031e   0x00000000   Code   RO         2070    .ARM.Collect$$rtentry$$00000000  c_w.l(rtentry.o)
    0x0000031e   0x00000000   Code   RO         2079    .ARM.Collect$$rtentry$$00000002  c_w.l(rtentry2.o)
    0x0000031e   0x00000006   Code   RO         2091    .ARM.Collect$$rtentry$$00000004  c_w.l(rtentry4.o)
    0x00000324   0x00000000   Code   RO         2081    .ARM.Collect$$rtentry$$00000009  c_w.l(rtentry2.o)
    0x00000324   0x00000004   Code   RO         2082    .ARM.Collect$$rtentry$$0000000A  c_w.l(rtentry2.o)
    0x00000328   0x00000000   Code   RO         2084    .ARM.Collect$$rtentry$$0000000C  c_w.l(rtentry2.o)
    0x00000328   0x00000008   Code   RO         2085    .ARM.Collect$$rtentry$$0000000D  c_w.l(rtentry2.o)
    0x00000330   0x00000002   Code   RO         2110    .ARM.Collect$$rtexit$$00000000  c_w.l(rtexit.o)
    0x00000332   0x00000000   Code   RO         2156    .ARM.Collect$$rtexit$$00000002  c_w.l(rtexit2.o)
    0x00000332   0x00000004   Code   RO         2157    .ARM.Collect$$rtexit$$00000003  c_w.l(rtexit2.o)
    0x00000336   0x00000006   Code   RO         2158    .ARM.Collect$$rtexit$$00000004  c_w.l(rtexit2.o)
    0x0000033c   0x00000006   Code   RO         1078    .emb_text           driverlib.lib(sysctl.o)
    0x00000342   0x00000002   PAD
    0x00000344   0x00000026   Code   RO         2014    .emb_text           driverlib.lib(cpu.o)
    0x0000036a   0x00000002   PAD
    0x0000036c   0x00000018   Code   RO          233    .text               startup_rvmdk.o
    0x00000384   0x00000002   Code   RO         2026    .text               c_w.l(use_no_semi.o)
    0x00000386   0x00000002   PAD
    0x00000388   0x00000018   Code   RO         2030    .text               c_w.l(noretval__2printf.o)
    0x000003a0   0x00000068   Code   RO         2032    .text               c_w.l(__printf.o)
    0x00000408   0x00000052   Code   RO         2034    .text               c_w.l(_printf_str.o)
    0x0000045a   0x00000002   PAD
    0x0000045c   0x00000074   Code   RO         2036    .text               c_w.l(_printf_dec.o)
    0x000004d0   0x00000004   Code   RO         2062    .text               c_w.l(getc.o)
    0x000004d4   0x0000002c   Code   RO         2064    .text               c_w.l(puts.o)
    0x00000500   0x00000006   Code   RO         2066    .text               c_w.l(heapauxi.o)
    0x00000506   0x000000b2   Code   RO         2071    .text               c_w.l(_printf_intcommon.o)
    0x000005b8   0x0000002c   Code   RO         2073    .text               c_w.l(_printf_char.o)
    0x000005e4   0x00000024   Code   RO         2075    .text               c_w.l(_printf_char_file.o)
    0x00000608   0x00000030   Code   RO         2093    .text               c_w.l(_printf_char_common.o)
    0x00000638   0x0000004a   Code   RO         2095    .text               c_w.l(sys_stackheap_outer.o)
    0x00000682   0x0000000c   Code   RO         2099    .text               c_w.l(exit.o)
    0x0000068e   0x00000002   PAD
    0x00000690   0x00000008   Code   RO         2107    .text               c_w.l(libspace.o)
    0x00000698   0x00000008   Code   RO          361    i.CPUgetPRIMASK_cpsid  es_port.o
    0x000006a0   0x00000006   Code   RO          367    i.CPUsetPRIMASK     es_port.o
    0x000006a6   0x00000002   PAD
    0x000006a8   0x00000038   Code   RO           86    i.Check4Keystroke   eventcheckers.o
    0x000006e0   0x00000028   Code   RO          239    i.ES_CheckUserEvents  es_checkevents.o
    0x00000708   0x00000054   Code   RO          397    i.ES_DeQueue        es_queue.o
    0x0000075c   0x00000048   Code   RO          398    i.ES_EnQueueFIFO    es_queue.o
    0x000007a4   0x00000048   Code   RO          399    i.ES_EnQueueLIFO    es_queue.o
    0x000007ec   0x00000034   Code   RO          310    i.ES_GetMSBitSet    es_lookuptables.o
    0x00000820   0x00000010   Code   RO          400    i.ES_InitQueue      es_queue.o
    0x00000830   0x0000004c   Code   RO          265    i.ES_Initialize     es_framework.o
    0x0000087c   0x00000030   Code   RO          383    i.ES_PostList00     es_postlist.o
    0x000008ac   0x00000030   Code   RO          267    i.ES_PostToService  es_framework.o
    0x000008dc   0x00000030   Code   RO          268    i.ES_PostToServiceLIFO  es_framework.o
    0x0000090c   0x0000002c   Code   RO          253    i.ES_RecallEvents   es_deferrecall.o
    0x00000938   0x00000060   Code   RO          269    i.ES_Run            es_framework.o
    0x00000998   0x00000038   Code   RO          190    i.ES_ShortTimerInit  es_shorttimer.o
    0x000009d0   0x00000060   Code   RO          191    i.ES_ShortTimerStart  es_shorttimer.o
    0x00000a30   0x00000004   Code   RO          440    i.ES_Timer_Init     es_timers.o
    0x00000a34   0x0000003c   Code   RO          441    i.ES_Timer_InitTimer  es_timers.o
    0x00000a70   0x0000006c   Code   RO          445    i.ES_Timer_Tick_Resp  es_timers.o
    0x00000adc   0x00000028   Code   RO          641    i.GPIODirModeSet    driverlib.lib(gpio.o)
    0x00000b04   0x0000013a   Code   RO          651    i.GPIOPadConfigSet  driverlib.lib(gpio.o)
    0x00000c3e   0x00000002   PAD
    0x00000c40   0x00000048   Code   RO          652    i.GPIOPinConfigure  driverlib.lib(gpio.o)
    0x00000c88   0x0000001c   Code   RO          662    i.GPIOPinTypeGPIOOutput  driverlib.lib(gpio.o)
    0x00000ca4   0x0000001c   Code   RO          677    i.GPIOPinTypeUART   driverlib.lib(gpio.o)
    0x00000cc0   0x00000006   Code   RO          683    i.GPIOPinWrite      driverlib.lib(gpio.o)
    0x00000cc6   0x00000002   PAD
    0x00000cc8   0x00000084   Code   RO          107    i.InitTestHarnessService0  testharnessservice0.o
    0x00000d4c   0x00000064   Code   RO          963    i.IntEnable         driverlib.lib(interrupt.o)
    0x00000db0   0x0000000e   Code   RO          966    i.IntMasterEnable   driverlib.lib(interrupt.o)
    0x00000dbe   0x00000002   PAD
    0x00000dc0   0x00000010   Code   RO          108    i.PostTestHarnessService0  testharnessservice0.o
    0x00000dd0   0x00000210   Code   RO          109    i.RunTestHarnessService0  testharnessservice0.o
    0x00000fe0   0x00000034   Code   RO          192    i.ShortTimerAHandler  es_shorttimer.o
    0x00001014   0x00000038   Code   RO          193    i.ShortTimerBHandler  es_shorttimer.o
    0x0000104c   0x00000120   Code   RO         1083    i.SysCtlClockSet    driverlib.lib(sysctl.o)
    0x0000116c   0x00000028   Code   RO         1112    i.SysCtlPeripheralEnable  driverlib.lib(sysctl.o)
    0x00001194   0x0000000e   Code   RO         1421    i.SysTickEnable     driverlib.lib(systick.o)
    0x000011a2   0x0000000e   Code   RO         1423    i.SysTickIntEnable  driverlib.lib(systick.o)
    0x000011b0   0x00000014   Code   RO          327    i.SysTickIntHandler  es_port.o
    0x000011c4   0x0000000a   Code   RO         1427    i.SysTickPeriodSet  driverlib.lib(systick.o)
    0x000011ce   0x00000004   Code   RO          541    i.TERMIO_GetChar    termio.o
    0x000011d2   0x00000002   PAD
    0x000011d4   0x00000050   Code   RO          542    i.TERMIO_Init       termio.o
    0x00001224   0x0000000c   Code   RO          543    i.TERMIO_PutChar    termio.o
    0x00001230   0x00000060   Code   RO         1487    i.TimerConfigure    driverlib.lib(timer.o)
    0x00001290   0x0000000e   Code   RO         1496    i.TimerEnable       driverlib.lib(timer.o)
    0x0000129e   0x00000004   Code   RO         1497    i.TimerIntClear     driverlib.lib(timer.o)
    0x000012a2   0x00000008   Code   RO         1499    i.TimerIntEnable    driverlib.lib(timer.o)
    0x000012aa   0x00000012   Code   RO         1505    i.TimerLoadSet      driverlib.lib(timer.o)
    0x000012bc   0x00000012   Code   RO         1514    i.TimerPrescaleSet  driverlib.lib(timer.o)
    0x000012ce   0x0000000c   Code   RO         1733    i.UARTCharPut       driverlib.lib(uart.o)
    0x000012da   0x00000006   Code   RO         1737    i.UARTClockSourceSet  driverlib.lib(uart.o)
    0x000012e0   0x0000005c   Code   RO          584    i.UARTStdioConfig   uartstdio.o
    0x0000133c   0x00000018   Code   RO          585    i.UARTgetc          uartstdio.o
    0x00001354   0x00000020   Code   RO          329    i._HW_Process_Pending_Ints  es_port.o
    0x00001374   0x00000016   Code   RO          330    i._HW_Timer_Init    es_port.o
    0x0000138a   0x00000002   Code   RO          491    i._sys_exit         retarget.o
    0x0000138c   0x00000006   Code   RO          493    i.ferror            retarget.o
    0x00001392   0x00000004   Code   RO          494    i.fgetc             retarget.o
    0x00001396   0x0000000e   Code   RO          495    i.fputc             retarget.o
    0x000013a4   0x00000014   Code   RO          544    i.kbhit             termio.o
    0x000013b8   0x000001d0   Code   RO            1    i.main              main.o
    0x00001588   0x0000000a   Code   RO         2164    x$fpl$fpinit        fz_wm.l(fpinit.o)
    0x00001592   0x00000002   PAD
    0x00001594   0x00000004   Data   RO          240    .constdata          es_checkevents.o
    0x00001598   0x00000010   Data   RO          271    .constdata          es_framework.o
    0x000015a8   0x00000020   Data   RO          311    .constdata          es_lookuptables.o
    0x000015c8   0x0000000f   Data   RO          312    .constdata          es_lookuptables.o
    0x000015d7   0x00000001   PAD
    0x000015d8   0x00000008   Data   RO          384    .constdata          es_postlist.o
    0x000015e0   0x00000040   Data   RO          447    .constdata          es_timers.o
    0x00001620   0x0000001c   Data   RO          590    .constdata          uartstdio.o
    0x0000163c   0x00000210   Data   RO          684    .constdata          driverlib.lib(gpio.o)
    0x0000184c   0x0000010c   Data   RO          979    .constdata          driverlib.lib(interrupt.o)
    0x00001958   0x00000011   Data   RO          591    .conststring        uartstdio.o
    0x00001969   0x00000003   PAD
    0x0000196c   0x00000020   Data   RO         2225    Region$$Table       anon$$obj.o


    Execution Region RW_IRAM1 (Base: 0x20000000, Size: 0x000008d8, Max: 0x00008000, ABSOLUTE)

    Base Addr    Size         Type   Attr      Idx    E Section Name        Object

    0x20000000   0x00000003   Data   RW          111    .data               testharnessservice0.o
    0x20000003   0x00000002   Data   RW          194    .data               es_shorttimer.o
    0x20000005   0x00000001   PAD
    0x20000006   0x00000006   Data   RW          272    .data               es_framework.o
    0x2000000c   0x00000004   Data   RW          331    .data               es_port.o
    0x20000010   0x00000004   Data   RW          402    .data               es_queue.o
    0x20000014   0x0000000a   Data   RW          448    .data               es_timers.o
    0x2000001e   0x00000002   PAD
    0x20000020   0x00000004   Data   RW          496    .data               retarget.o
    0x20000024   0x00000004   Data   RW          497    .data               retarget.o
    0x20000028   0x00000008   Data   RW          592    .data               uartstdio.o
    0x20000030   0x00000010   Zero   RW          110    .bss                testharnessservice0.o
    0x20000040   0x00000018   Zero   RW          270    .bss                es_framework.o
    0x20000058   0x00000020   Zero   RW          446    .bss                es_timers.o
    0x20000078   0x00000060   Zero   RW         2108    .bss                c_w.l(libspace.o)
    0x200000d8   0x00000000   Zero   RW          231    HEAP                startup_rvmdk.o
    0x200000d8   0x00000800   Zero   RW          230    STACK               startup_rvmdk.o


==============================================================================

Image component sizes


      Code (inc. data)   RO Data    RW Data    ZI Data      Debug   Object Name

        40          6          4          0          0       1213   es_checkevents.o
        44          0          0          0          0       1034   es_deferrecall.o
       268         44         16          6         24       3535   es_framework.o
        52          4         47          0          0       1318   es_lookuptables.o
        88         10          0          4          0       3650   es_port.o
        48          4          8          0          0       1376   es_postlist.o
       244         16          0          4          0       3150   es_queue.o
       260         42          0          2          0       3361   es_shorttimer.o
       172         34         64         10         32       2454   es_timers.o
        56          6          0          0          0        610   eventcheckers.o
       464        356          0          0          0       9131   main.o
        26          0          0          8          0       3719   retarget.o
       672        636          0          0       2048        572   startup_rvmdk.o
       116         26          0          0          0       2004   termio.o
       676        308          0          3         16       3061   testharnessservice0.o
       116         14         45          8          0       2780   uartstdio.o

    ----------------------------------------------------------------------
      3346       1506        220         48       2120      42968   Object Totals
         0          0         32          0          0          0   (incl. Generated)
         4          0          4          3          0          0   (incl. Padding)

    ----------------------------------------------------------------------

      Code (inc. data)   RO Data    RW Data    ZI Data      Debug   Library Member Name

         8          0          0          0          0         68   __main.o
       104          0          0          0          0         84   __printf.o
        52          8          0          0          0          0   __scatter.o
        26          0          0          0          0          0   __scatter_copy.o
        28          0          0          0          0          0   __scatter_zi.o
         6          0          0          0          0          0   _printf_c.o
        44          0          0          0          0        108   _printf_char.o
        48          6          0          0          0         96   _printf_char_common.o
        36          4          0          0          0         80   _printf_char_file.o
         6          0          0          0          0          0   _printf_d.o
       116         16          0          0          0         92   _printf_dec.o
       178          0          0          0          0         88   _printf_intcommon.o
         0          0          0          0          0          0   _printf_percent.o
         4          0          0          0          0          0   _printf_percent_end.o
         6          0          0          0          0          0   _printf_s.o
        82          0          0          0          0         80   _printf_str.o
        12          0          0          0          0         72   exit.o
         4          0          0          0          0         68   getc.o
         6          0          0          0          0        152   heapauxi.o
         2          0          0          0          0          0   libinit.o
         6          0          0          0          0          0   libinit2.o
         2          0          0          0          0          0   libshutdown.o
         2          0          0          0          0          0   libshutdown2.o
         8          4          0          0         96         68   libspace.o
        24          4          0          0          0         84   noretval__2printf.o
        44          4          0          0          0         84   puts.o
         0          0          0          0          0          0   rtentry.o
        12          0          0          0          0          0   rtentry2.o
         6          0          0          0          0          0   rtentry4.o
         2          0          0          0          0          0   rtexit.o
        10          0          0          0          0          0   rtexit2.o
        74          0          0          0          0         80   sys_stackheap_outer.o
         2          0          0          0          0         68   use_no_semi.o
        38          0          0          0          0        504   cpu.o
       488          8        528          0          0       6848   gpio.o
       114          8        268          0          0       1774   interrupt.o
       334         22          0          0          0       1550   sysctl.o
        38          0          0          0          0       1218   systick.o
       158          8          0          0          0       2722   timer.o
        18          0          0          0          0        867   uart.o
        10          0          0          0          0        116   fpinit.o

    ----------------------------------------------------------------------
      2178         92        796          0         96      16971   Library Totals
        20          0          0          0          0          0   (incl. Padding)

    ----------------------------------------------------------------------

      Code (inc. data)   RO Data    RW Data    ZI Data      Debug   Library Name

       960         46          0          0         96       1372   c_w.l
      1188         46        796          0          0      15483   driverlib.lib
        10          0          0          0          0        116   fz_wm.l

    ----------------------------------------------------------------------
      2178         92        796          0         96      16971   Library Totals

    ----------------------------------------------------------------------

==============================================================================


      Code (inc. data)   RO Data    RW Data    ZI Data      Debug   

      5524       1598       1016         48       2216      53815   Grand Totals
      5524       1598       1016         48       2216      53815   ELF Image Totals
      5524       1598       1016         48          0          0   ROM Totals

==============================================================================

    Total RO  Size (Code + RO Data)                 6540 (   6.39kB)
    Total RW  Size (RW Data + ZI Data)              2264 (   2.21kB)
    Total ROM Size (Code + RO Data + RW Data)       6588 (   6.43kB)

==============================================================================

